{
  "contractName": "BatteryPassport",
  "abi": [
    {
      "inputs": [
        {
          "internalType": "string",
          "name": "",
          "type": "string"
        }
      ],
      "name": "batteries",
      "outputs": [
        {
          "internalType": "string",
          "name": "batteryID",
          "type": "string"
        },
        {
          "internalType": "string",
          "name": "manufacturer",
          "type": "string"
        },
        {
          "internalType": "string",
          "name": "dateOfManufacture",
          "type": "string"
        },
        {
          "internalType": "string",
          "name": "chemistry",
          "type": "string"
        },
        {
          "internalType": "uint256",
          "name": "capacity",
          "type": "uint256"
        }
      ],
      "stateMutability": "view",
      "type": "function",
      "constant": true
    },
    {
      "inputs": [
        {
          "internalType": "string",
          "name": "_batteryID",
          "type": "string"
        },
        {
          "internalType": "string",
          "name": "_manufacturer",
          "type": "string"
        },
        {
          "internalType": "string",
          "name": "_dateOfManufacture",
          "type": "string"
        },
        {
          "internalType": "string",
          "name": "_chemistry",
          "type": "string"
        },
        {
          "internalType": "uint256",
          "name": "_capacity",
          "type": "uint256"
        }
      ],
      "name": "registerBattery",
      "outputs": [],
      "stateMutability": "nonpayable",
      "type": "function"
    },
    {
      "inputs": [
        {
          "internalType": "string",
          "name": "_batteryID",
          "type": "string"
        }
      ],
      "name": "getBattery",
      "outputs": [
        {
          "internalType": "string",
          "name": "",
          "type": "string"
        },
        {
          "internalType": "string",
          "name": "",
          "type": "string"
        },
        {
          "internalType": "string",
          "name": "",
          "type": "string"
        },
        {
          "internalType": "string",
          "name": "",
          "type": "string"
        },
        {
          "internalType": "uint256",
          "name": "",
          "type": "uint256"
        }
      ],
      "stateMutability": "view",
      "type": "function",
      "constant": true
    }
  ],
  "bytecode": "0x608060405234801561001057600080fd5b50610bb5806100206000396000f3fe608060405234801561001057600080fd5b50600436106100415760003560e01c806333337a2714610046578063d53b853a14610062578063e063e47814610096575b600080fd5b610060600480360381019061005b919061081d565b6100ca565b005b61007c600480360381019061007791906107dc565b61019d565b60405161008d959493929190610984565b60405180910390f35b6100b060048036038101906100ab91906107dc565b610409565b6040516100c1959493929190610984565b60405180910390f35b60006040518060a0016040528087815260200186815260200185815260200184815260200183815250905080600087604051610106919061096d565b908152602001604051809103902060008201518160000190805190602001906101309291906106bc565b50602082015181600101908051906020019061014d9291906106bc565b50604082015181600201908051906020019061016a9291906106bc565b5060608201518160030190805190602001906101879291906106bc565b5060808201518160040155905050505050505050565b6000818051602081018201805184825260208301602085012081835280955050505050506000915090508060000180546101d690610ac7565b80601f016020809104026020016040519081016040528092919081815260200182805461020290610ac7565b801561024f5780601f106102245761010080835404028352916020019161024f565b820191906000526020600020905b81548152906001019060200180831161023257829003601f168201915b50505050509080600101805461026490610ac7565b80601f016020809104026020016040519081016040528092919081815260200182805461029090610ac7565b80156102dd5780601f106102b2576101008083540402835291602001916102dd565b820191906000526020600020905b8154815290600101906020018083116102c057829003601f168201915b5050505050908060020180546102f290610ac7565b80601f016020809104026020016040519081016040528092919081815260200182805461031e90610ac7565b801561036b5780601f106103405761010080835404028352916020019161036b565b820191906000526020600020905b81548152906001019060200180831161034e57829003601f168201915b50505050509080600301805461038090610ac7565b80601f01602080910402602001604051908101604052809291908181526020018280546103ac90610ac7565b80156103f95780601f106103ce576101008083540402835291602001916103f9565b820191906000526020600020905b8154815290600101906020018083116103dc57829003601f168201915b5050505050908060040154905085565b606080606080600080600087604051610422919061096d565b90815260200160405180910390206040518060a001604052908160008201805461044b90610ac7565b80601f016020809104026020016040519081016040528092919081815260200182805461047790610ac7565b80156104c45780601f10610499576101008083540402835291602001916104c4565b820191906000526020600020905b8154815290600101906020018083116104a757829003601f168201915b505050505081526020016001820180546104dd90610ac7565b80601f016020809104026020016040519081016040528092919081815260200182805461050990610ac7565b80156105565780601f1061052b57610100808354040283529160200191610556565b820191906000526020600020905b81548152906001019060200180831161053957829003601f168201915b5050505050815260200160028201805461056f90610ac7565b80601f016020809104026020016040519081016040528092919081815260200182805461059b90610ac7565b80156105e85780601f106105bd576101008083540402835291602001916105e8565b820191906000526020600020905b8154815290600101906020018083116105cb57829003601f168201915b5050505050815260200160038201805461060190610ac7565b80601f016020809104026020016040519081016040528092919081815260200182805461062d90610ac7565b801561067a5780601f1061064f5761010080835404028352916020019161067a565b820191906000526020600020905b81548152906001019060200180831161065d57829003601f168201915b50505050508152602001600482015481525050905080600001518160200151826040015183606001518460800151955095509550955095505091939590929450565b8280546106c890610ac7565b90600052602060002090601f0160209004810192826106ea5760008555610731565b82601f1061070357805160ff1916838001178555610731565b82800160010185558215610731579182015b82811115610730578251825591602001919060010190610715565b5b50905061073e9190610742565b5090565b5b8082111561075b576000816000905550600101610743565b5090565b600061077261076d84610a24565b6109f3565b90508281526020810184848401111561078a57600080fd5b610795848285610a85565b509392505050565b600082601f8301126107ae57600080fd5b81356107be84826020860161075f565b91505092915050565b6000813590506107d681610b68565b92915050565b6000602082840312156107ee57600080fd5b600082013567ffffffffffffffff81111561080857600080fd5b6108148482850161079d565b91505092915050565b600080600080600060a0868803121561083557600080fd5b600086013567ffffffffffffffff81111561084f57600080fd5b61085b8882890161079d565b955050602086013567ffffffffffffffff81111561087857600080fd5b6108848882890161079d565b945050604086013567ffffffffffffffff8111156108a157600080fd5b6108ad8882890161079d565b935050606086013567ffffffffffffffff8111156108ca57600080fd5b6108d68882890161079d565b92505060806108e7888289016107c7565b9150509295509295909350565b60006108ff82610a54565b6109098185610a5f565b9350610919818560208601610a94565b61092281610b57565b840191505092915050565b600061093882610a54565b6109428185610a70565b9350610952818560208601610a94565b80840191505092915050565b61096781610a7b565b82525050565b6000610979828461092d565b915081905092915050565b600060a082019050818103600083015261099e81886108f4565b905081810360208301526109b281876108f4565b905081810360408301526109c681866108f4565b905081810360608301526109da81856108f4565b90506109e9608083018461095e565b9695505050505050565b6000604051905081810181811067ffffffffffffffff82111715610a1a57610a19610b28565b5b8060405250919050565b600067ffffffffffffffff821115610a3f57610a3e610b28565b5b601f19601f8301169050602081019050919050565b600081519050919050565b600082825260208201905092915050565b600081905092915050565b6000819050919050565b82818337600083830152505050565b60005b83811015610ab2578082015181840152602081019050610a97565b83811115610ac1576000848401525b50505050565b60006002820490506001821680610adf57607f821691505b60208210811415610af357610af2610af9565b5b50919050565b7f4e487b7100000000000000000000000000000000000000000000000000000000600052602260045260246000fd5b7f4e487b7100000000000000000000000000000000000000000000000000000000600052604160045260246000fd5b6000601f19601f8301169050919050565b610b7181610a7b565b8114610b7c57600080fd5b5056fea264697066735822122090b725360c20d61509b53a06ccbcd7107c526314a613f1e8b32ae5dab1ad49a464736f6c63430008000033",
  "immutableReferences": {},
  "source": "// SPDX-License-Identifier: MIT\r\npragma solidity ^0.8.0;\r\n\r\ncontract BatteryPassport {\r\n    struct Battery {\r\n        string batteryID;\r\n        string manufacturer;\r\n        string dateOfManufacture;\r\n        string chemistry;\r\n        uint256 capacity;\r\n    }\r\n\r\n    mapping(string => Battery) public batteries;\r\n\r\n    // Register a new battery\r\n    function registerBattery(\r\n        string memory _batteryID,\r\n        string memory _manufacturer,\r\n        string memory _dateOfManufacture,\r\n        string memory _chemistry,\r\n        uint256 _capacity\r\n    ) public {\r\n        Battery memory newBattery = Battery(\r\n            _batteryID,\r\n            _manufacturer,\r\n            _dateOfManufacture,\r\n            _chemistry,\r\n            _capacity\r\n        );\r\n        batteries[_batteryID] = newBattery;\r\n    }\r\n\r\n    // Fetch battery information by ID\r\n    function getBattery(string memory _batteryID)\r\n        public\r\n        view\r\n        returns (\r\n            string memory,\r\n            string memory,\r\n            string memory,\r\n            string memory,\r\n            uint256\r\n        )\r\n    {\r\n        Battery memory b = batteries[_batteryID];\r\n        return (\r\n            b.batteryID,\r\n            b.manufacturer,\r\n            b.dateOfManufacture,\r\n            b.chemistry,\r\n            b.capacity\r\n        );\r\n    }\r\n}\r\n",
  "sourcePath": "C:\\Users\\Dell\\Desktop\\Battery-Passport\\contracts\\BatteryPassport.sol",
  "compiler": {
    "name": "solc",
    "version": "0.8.0+commit.c7dfd78e.Emscripten.clang"
  },
  "schemaVersion": "3.4.16",
  "updatedAt": "2024-11-02T09:11:22.717Z",
  "networkType": "ethereum",
  "devdoc": {
    "kind": "dev",
    "methods": {},
    "version": 1
  },
  "userdoc": {
    "kind": "user",
    "methods": {},
    "version": 1
  }
}